{
  "contractName": "KycData",
  "abi": [
    {
      "inputs": [],
      "stateMutability": "nonpayable",
      "type": "constructor"
    },
    {
      "inputs": [
        {
          "internalType": "uint256",
          "name": "_aadharNumber",
          "type": "uint256"
        },
        {
          "internalType": "uint256",
          "name": "_panNumber",
          "type": "uint256"
        },
        {
          "internalType": "string",
          "name": "_aadharImageHash",
          "type": "string"
        },
        {
          "internalType": "string",
          "name": "_panImageHash",
          "type": "string"
        },
        {
          "internalType": "string",
          "name": "_ipAddress",
          "type": "string"
        },
        {
          "internalType": "string",
          "name": "_selfieHash",
          "type": "string"
        },
        {
          "internalType": "string",
          "name": "_location",
          "type": "string"
        }
      ],
      "name": "setkycData",
      "outputs": [],
      "stateMutability": "nonpayable",
      "type": "function"
    },
    {
      "inputs": [
        {
          "internalType": "uint256",
          "name": "_aadharNumber",
          "type": "uint256"
        }
      ],
      "name": "getkycData",
      "outputs": [
        {
          "components": [
            {
              "internalType": "uint256",
              "name": "aadharNumber",
              "type": "uint256"
            },
            {
              "internalType": "uint256",
              "name": "panNumber",
              "type": "uint256"
            },
            {
              "internalType": "string",
              "name": "aadharImageHash",
              "type": "string"
            },
            {
              "internalType": "string",
              "name": "panImageHash",
              "type": "string"
            },
            {
              "internalType": "string",
              "name": "ipAddress",
              "type": "string"
            },
            {
              "internalType": "string",
              "name": "selfieHash",
              "type": "string"
            },
            {
              "internalType": "string",
              "name": "location",
              "type": "string"
            }
          ],
          "internalType": "struct KycData.kycData",
          "name": "",
          "type": "tuple"
        }
      ],
      "stateMutability": "view",
      "type": "function",
      "constant": true
    },
    {
      "inputs": [
        {
          "internalType": "uint256",
          "name": "_aadharNumber",
          "type": "uint256"
        }
      ],
      "name": "checkIsCustomerVerified",
      "outputs": [
        {
          "internalType": "bool",
          "name": "",
          "type": "bool"
        }
      ],
      "stateMutability": "view",
      "type": "function",
      "constant": true
    },
    {
      "inputs": [
        {
          "internalType": "uint256",
          "name": "_aadharNumber",
          "type": "uint256"
        }
      ],
      "name": "getVerifier",
      "outputs": [
        {
          "internalType": "address",
          "name": "",
          "type": "address"
        }
      ],
      "stateMutability": "view",
      "type": "function",
      "constant": true
    }
  ],
  "bytecode": "0x608060405234801561001057600080fd5b5060008081905550610f91806100276000396000f3fe608060405234801561001057600080fd5b506004361061004c5760003560e01c80633561bc271461005157806345ea706c146100815780637daab3f1146100b1578063d0bb85fb146100e1575b600080fd5b61006b60048036038101906100669190610889565b6100fd565b60405161007891906108f7565b60405180910390f35b61009b60048036038101906100969190610889565b61019d565b6040516100a89190610a72565b60405180910390f35b6100cb60048036038101906100c69190610889565b610518565b6040516100d89190610aaf565b60405180910390f35b6100fb60048036038101906100f69190610bff565b610542565b005b60006002600083815260200190815260200160002060009054906101000a900460ff1661015f576040517f08c379a000000000000000000000000000000000000000000000000000000000815260040161015690610d8a565b60405180910390fd5b6003600083815260200190815260200160002060000160009054906101000a900473ffffffffffffffffffffffffffffffffffffffff169050919050565b6101a561075f565b6002600083815260200190815260200160002060009054906101000a900460ff16610205576040517f08c379a00000000000000000000000000000000000000000000000000000000081526004016101fc90610df6565b60405180910390fd5b600160008381526020019081526020016000206040518060e0016040529081600082015481526020016001820154815260200160028201805461024790610e45565b80601f016020809104026020016040519081016040528092919081815260200182805461027390610e45565b80156102c05780601f10610295576101008083540402835291602001916102c0565b820191906000526020600020905b8154815290600101906020018083116102a357829003601f168201915b505050505081526020016003820180546102d990610e45565b80601f016020809104026020016040519081016040528092919081815260200182805461030590610e45565b80156103525780601f1061032757610100808354040283529160200191610352565b820191906000526020600020905b81548152906001019060200180831161033557829003601f168201915b5050505050815260200160048201805461036b90610e45565b80601f016020809104026020016040519081016040528092919081815260200182805461039790610e45565b80156103e45780601f106103b9576101008083540402835291602001916103e4565b820191906000526020600020905b8154815290600101906020018083116103c757829003601f168201915b505050505081526020016005820180546103fd90610e45565b80601f016020809104026020016040519081016040528092919081815260200182805461042990610e45565b80156104765780601f1061044b57610100808354040283529160200191610476565b820191906000526020600020905b81548152906001019060200180831161045957829003601f168201915b5050505050815260200160068201805461048f90610e45565b80601f01602080910402602001604051908101604052809291908181526020018280546104bb90610e45565b80156105085780601f106104dd57610100808354040283529160200191610508565b820191906000526020600020905b8154815290600101906020018083116104eb57829003601f168201915b5050505050815250509050919050565b60006002600083815260200190815260200160002060009054906101000a900460ff169050919050565b6002600088815260200190815260200160002060009054906101000a900460ff16156105a3576040517f08c379a000000000000000000000000000000000000000000000000000000000815260040161059a90610ec3565b60405180910390fd5b60016002600089815260200190815260200160002060006101000a81548160ff0219169083151502179055506000808154809291906105e190610f12565b919050555060405180602001604052803373ffffffffffffffffffffffffffffffffffffffff168152506003600089815260200190815260200160002060008201518160000160006101000a81548173ffffffffffffffffffffffffffffffffffffffff021916908373ffffffffffffffffffffffffffffffffffffffff1602179055509050506040518060e001604052808881526020018781526020018681526020018581526020018481526020018381526020018281525060016000898152602001908152602001600020600082015181600001556020820151816001015560408201518160020190805190602001906106de92919061079c565b5060608201518160030190805190602001906106fb92919061079c565b50608082015181600401908051906020019061071892919061079c565b5060a082015181600501908051906020019061073592919061079c565b5060c082015181600601908051906020019061075292919061079c565b5090505050505050505050565b6040518060e00160405280600081526020016000815260200160608152602001606081526020016060815260200160608152602001606081525090565b8280546107a890610e45565b90600052602060002090601f0160209004810192826107ca5760008555610811565b82601f106107e357805160ff1916838001178555610811565b82800160010185558215610811579182015b828111156108105782518255916020019190600101906107f5565b5b50905061081e9190610822565b5090565b5b8082111561083b576000816000905550600101610823565b5090565b6000604051905090565b600080fd5b600080fd5b6000819050919050565b61086681610853565b811461087157600080fd5b50565b6000813590506108838161085d565b92915050565b60006020828403121561089f5761089e610849565b5b60006108ad84828501610874565b91505092915050565b600073ffffffffffffffffffffffffffffffffffffffff82169050919050565b60006108e1826108b6565b9050919050565b6108f1816108d6565b82525050565b600060208201905061090c60008301846108e8565b92915050565b61091b81610853565b82525050565b600081519050919050565b600082825260208201905092915050565b60005b8381101561095b578082015181840152602081019050610940565b8381111561096a576000848401525b50505050565b6000601f19601f8301169050919050565b600061098c82610921565b610996818561092c565b93506109a681856020860161093d565b6109af81610970565b840191505092915050565b600060e0830160008301516109d26000860182610912565b5060208301516109e56020860182610912565b50604083015184820360408601526109fd8282610981565b91505060608301518482036060860152610a178282610981565b91505060808301518482036080860152610a318282610981565b91505060a083015184820360a0860152610a4b8282610981565b91505060c083015184820360c0860152610a658282610981565b9150508091505092915050565b60006020820190508181036000830152610a8c81846109ba565b905092915050565b60008115159050919050565b610aa981610a94565b82525050565b6000602082019050610ac46000830184610aa0565b92915050565b600080fd5b600080fd5b7f4e487b7100000000000000000000000000000000000000000000000000000000600052604160045260246000fd5b610b0c82610970565b810181811067ffffffffffffffff82111715610b2b57610b2a610ad4565b5b80604052505050565b6000610b3e61083f565b9050610b4a8282610b03565b919050565b600067ffffffffffffffff821115610b6a57610b69610ad4565b5b610b7382610970565b9050602081019050919050565b82818337600083830152505050565b6000610ba2610b9d84610b4f565b610b34565b905082815260208101848484011115610bbe57610bbd610acf565b5b610bc9848285610b80565b509392505050565b600082601f830112610be657610be5610aca565b5b8135610bf6848260208601610b8f565b91505092915050565b600080600080600080600060e0888a031215610c1e57610c1d610849565b5b6000610c2c8a828b01610874565b9750506020610c3d8a828b01610874565b965050604088013567ffffffffffffffff811115610c5e57610c5d61084e565b5b610c6a8a828b01610bd1565b955050606088013567ffffffffffffffff811115610c8b57610c8a61084e565b5b610c978a828b01610bd1565b945050608088013567ffffffffffffffff811115610cb857610cb761084e565b5b610cc48a828b01610bd1565b93505060a088013567ffffffffffffffff811115610ce557610ce461084e565b5b610cf18a828b01610bd1565b92505060c088013567ffffffffffffffff811115610d1257610d1161084e565b5b610d1e8a828b01610bd1565b91505092959891949750929550565b600082825260208201905092915050565b7f437573746f6d65722069736e2774207665726966696564207965740000000000600082015250565b6000610d74601b83610d2d565b9150610d7f82610d3e565b602082019050919050565b60006020820190508181036000830152610da381610d67565b9050919050565b7f506c6561736520646f204b594321000000000000000000000000000000000000600082015250565b6000610de0600e83610d2d565b9150610deb82610daa565b602082019050919050565b60006020820190508181036000830152610e0f81610dd3565b9050919050565b7f4e487b7100000000000000000000000000000000000000000000000000000000600052602260045260246000fd5b60006002820490506001821680610e5d57607f821691505b60208210811415610e7157610e70610e16565b5b50919050565b7f54686973206973206120766572696669656420637573746f6d65720000000000600082015250565b6000610ead601b83610d2d565b9150610eb882610e77565b602082019050919050565b60006020820190508181036000830152610edc81610ea0565b9050919050565b7f4e487b7100000000000000000000000000000000000000000000000000000000600052601160045260246000fd5b6000610f1d82610853565b91507fffffffffffffffffffffffffffffffffffffffffffffffffffffffffffffffff821415610f5057610f4f610ee3565b5b60018201905091905056fea26469706673582212207f9e5ff130ab28e5b33ad10b57e0af18b687cc5be2450d04d1a4b57369ee3ed164736f6c634300080a0033",
  "immutableReferences": {},
  "source": "// SPDX-License-Identifier: MIT\r\npragma solidity ^0.8.10;\r\n\r\n\r\ncontract KycData{\r\n\r\n   uint private count;    //total no of customers in blockchain\r\n   constructor(){\r\n      count=0;           //initialize to 0 while deploying \r\n   }\r\n\r\n   //metaData contains who has verified the perticular customer\r\n   struct metaData{                          \r\n      address dataAddedBy;\r\n   }\r\n\r\n   //stores kyc data\r\n   struct kycData{                         \r\n      uint aadharNumber;  //optional to store aadharNumber\r\n      uint panNumber;\r\n      string aadharImageHash;\r\n      string panImageHash;\r\n      string ipAddress;\r\n      string selfieHash;\r\n      string location;\r\n   }\r\n\r\n   //aadharNumber mapping with kycData\r\n   mapping( uint => kycData) customers; \r\n\r\n   //stores is customer verified or not\r\n   mapping( uint => bool) isVerified;\r\n\r\n   //metadata mapping\r\n   mapping(uint=>metaData) verifier;\r\n\r\n\r\n   //to add data to blockchain\r\n   function setkycData(uint _aadharNumber, uint _panNumber, string memory _aadharImageHash,string memory  _panImageHash,string memory _ipAddress,string memory _selfieHash,string memory _location) public{\r\n\r\n      require(!isVerified[_aadharNumber],\"This is a verified customer\");\r\n      isVerified[_aadharNumber]=true;\r\n\r\n      count++;\r\n\r\n      verifier[_aadharNumber]= metaData(msg.sender);\r\n\r\n      customers[_aadharNumber] = kycData(_aadharNumber,_panNumber,_aadharImageHash,_panImageHash,_ipAddress,_selfieHash,_location);\r\n   }\r\n\r\n\r\n //to retrive data back\r\n   function getkycData(uint _aadharNumber) public view  returns(kycData memory){\r\n\r\n      require(isVerified[_aadharNumber],\"Please do KYC!\");\r\n      return customers[_aadharNumber];\r\n   }\r\n\r\n\r\n   //to check verified customer\r\n   function checkIsCustomerVerified(uint _aadharNumber) public view returns (bool) {\r\n      return isVerified[_aadharNumber];\r\n   }\r\n\r\n   function getVerifier(uint _aadharNumber) public view returns(address){\r\n      require(isVerified[_aadharNumber],\"Customer isn't verified yet\");\r\n      return verifier[_aadharNumber].dataAddedBy;\r\n   }\r\n \r\n}",
  "sourcePath": "C:\\Users\\ajayb\\OneDrive\\Desktop\\vKYC Project\\contracts\\KycData.sol",
  "compiler": {
    "name": "solc",
    "version": "0.8.10+commit.fc410830.Emscripten.clang"
  },
  "schemaVersion": "3.4.4",
  "updatedAt": "2022-01-03T08:56:32.573Z",
  "networkType": "ethereum",
  "devdoc": {
    "kind": "dev",
    "methods": {},
    "version": 1
  },
  "userdoc": {
    "kind": "user",
    "methods": {},
    "version": 1
  }
}